:020000040800F2
:10000000002800204D170008DD160008E316000840
:10001000E9160008EF160008F516000800000000B9
:10002000000000000000000000000000FB160008B7
:100030000717000800000000131700081F1700082A
:1000400095170008951700089517000895170008E0
:1000500095170008951700089517000895170008D0
:1000600095170008951700089517000895170008C0
:1000700095170008951700089517000895170008B0
:1000800095170008951700089517000895170008A0
:100090009517000895170008951700089517000890
:1000A0009517000895170008951700089517000880
:1000B0002D1700089517000800000000951700088C
:1000C00095170008000000000000000095170008C8
:1000D00000000000951700089517000800000000B8
:1000E00095170008951700089517000800000000F4
:1000F0000000000000000000000000000000000000
:0C01000000000000000000005FF808F1A3
:10010C0010B5054C237833B9044B13B10448AFF345
:10011C0000800123237010BD6C0000200000000043
:10012C00DC2D000808B5034B1BB103490348AFF3A2
:10013C00008008BD0000000070000020DC2D0008CD
:10014C0080B483B000AF78607B68012B08D1134B6F
:10015C001B68012B04D1114B00221A60012318E0FB
:10016C007B68022B08D10E4B1B68012B04D10C4B66
:10017C0000221A6001230CE07B68032B08D1094B89
:10018C001B68012B04D1074B00221A60012300E0ED
:10019C00002318460C37BD4680BC704788000020F1
:1001AC008C0000209000002080B400AF034B012293
:1001BC001A6000BFBD4680BC704700BF880000209D
:1001CC0080B400AF034B01221A6000BFBD4680BC57
:1001DC00704700BF8C00002080B400AF034B01229D
:1001EC001A6000BFBD4680BC704700BF9000002065
:1001FC0080B500AF5C4B1B685C4A13605C4B1B68A2
:10020C00594A13604FF400515A4801F0A9FD0346B6
:10021C001A46574B1A60554B1A68534B1B689A4237
:10022C0025D1514B1A68524B1B689A421FD1524B25
:10023C001A684F4B1B689A420DD04D4B1B684E4AA7
:10024C0013604B4B1B68002B11D1FFF7ADFF4B4BD1
:10025C00C8221A600BE0494B1B68013B474A1360EC
:10026C00464B1B68002B02D1434B01221A60444BB6
:10027C001B68444A1360444B1B68414A13604FF49B
:10028C0080413C4801F06CFD03461A463E4B1A6017
:10029C003C4B1A683A4B1B689A4225D1384B1A686A
:1002AC00394B1B689A421FD1384B1A68364B1B6866
:1002BC009A420DD0344B1B68344A1360324B1B6886
:1002CC00002B11D1FFF77CFF2C4BC8221A600BE0DE
:1002DC002A4B1B68013B294A1360284B1B68002BD7
:1002EC0002D12A4B01221A60294B1B68294A136040
:1002FC00294B1B68264A13604FF400411D4801F03E
:10030C002FFD03461A46244B1A60224B1A68204BC9
:10031C001B689A4225D11E4B1A681F4B1B689A42C8
:10032C001FD11E4B1A681C4B1B689A420DD01A4BDE
:10033C001B681A4A1360184B1B68002B11D1FFF76E
:10034C004BFF0E4BC8221A600BE00C4B1B68013B99
:10035C000A4A1360094B1B68002B02D10F4B012278
:10036C001A6000BF80BD00BF040000200000002008
:10037C0008000020000801400C0000203000002084
:10038C001400002010000020180000201C00002089
:10039C002400002020000020280000202C00002039
:1003AC0080B500AFAC4B1B68013B042B00F21881ED
:1003BC0001A252F823F000BFD90300083904000849
:1003CC00B50400081D0500088505000801224FF43E
:1003DC008071A24801F0DBFC01224FF400719F48B0
:1003EC0001F0D5FC01224FF480619C4801F0CFFC58
:1003FC0001224FF40061994801F0C9FC01224FF42D
:10040C008051964801F0C3FC01224FF400519348EF
:10041C0001F0BDFC904B02221A60914B5B68642288
:10042C0002FB03F3184601F043F8E2E000224FF41C
:10043C0080718A4801F0ABFC01224FF400718748AF
:10044C0001F0A5FC01224FF48061844801F09FFC6F
:10045C0001224FF40061814801F099FC01224FF414
:10046C0080517E4801F093FC00224FF400517B48F0
:10047C0001F08DFC7B4B1B68012B0AD1764B0322C0
:10048C001A60774B9B68642202FB03F3184601F059
:10049C000FF80120FFF754FE0346012B40F0A28019
:1004AC006D4B0C221A609DE000224FF480716B485A
:1004BC0001F06DFC01224FF40071684801F067FCFB
:1004CC0001224FF48061654801F061FC01224FF478
:1004DC000061624801F05BFC00224FF480515F48E0
:1004EC0001F055FC01224FF400515C4801F04FFC27
:1004FC005C4B1B68012B77D1574B04221A60584B6D
:10050C005B68642202FB03F3184600F0D1FF6BE03A
:10051C0001224FF48071514801F039FC01224FF453
:10052C0000714E4801F033FC00224FF480614B48BF
:10053C0001F02DFC00224FF40061484801F027FC2B
:10054C0001224FF48051454801F021FC01224FF467
:10055C000051424801F01BFC424B1B68012B45D15A
:10056C003D4B05221A603E4B9B68642202FB03F351
:10057C00184600F09DFF39E001224FF48071374896
:10058C0001F005FC00224FF40071344801F0FFFB30
:10059C0001224FF48061314801F0F9FB00224FF445
:1005AC0000612E4801F0F3FB01224FF480512B48DF
:1005BC0001F0EDFB01224FF40051284801F0E7FB5C
:1005CC00284B1B68012B13D1234B02221A60244B9E
:1005DC005B68642202FB03F3184600F069FF07E036
:1005EC0000BF06E000BF04E000BF02E000BF00E077
:1005FC0000BF1D4B1B68012B40F0C280642000F033
:10060C006BFF1A4B1B68002B10D1194B1B68013B5D
:10061C00174A1360164B1B68002B3FDC134B01224F
:10062C001A600F4B5B68124A136037E00F4B1B6864
:10063C00012B1FD10E4B1B68013B0D4A13600C4B59
:10064C001B68002B2ADC094B02221A60044B9B68A6
:10065C00074A136022E000BF94000020000C014008
:10066C0034000020A0000020A800002098000020EA
:10067C00C80000204E4B1B68022B0FD14D4B1B6842
:10068C00013B4C4A13604B4B1B68002B06DC484B60
:10069C0000221A60484B1B68464A1360474B1B6884
:1006AC00012B10D1464B1B68013B454A1360444B50
:1006BC001B68002B30DC414B02221A603E4B9B68BE
:1006CC003F4A136028E03D4B1B68022B10D13C4B7A
:1006DC001B68013B3A4A1360394B1B68002B1BDC2F
:1006EC00364B00221A60344B1B68354A136013E0FA
:1006FC00324B1B68002B0FD1314B1B68013B304A2E
:10070C0013602F4B1B68002B06DC2C4B01221A604C
:10071C00294B5B682A4A1360254B1B68032B0CD1B1
:10072C00264B1B68142B08D1234B1B68214A1360E2
:10073C00244B1B68224A136020E01D4B1B68042BC2
:10074C000CD11E4B1B68152B08D11B4B5B68194A2F
:10075C0013601C4B5B681A4A13600FE0144B1B6848
:10076C00052B0BD1154B1B68162B07D1124B9B6815
:10077C00104A1360134B9B68114A136000F076FB10
:10078C00114B1B68012B11D1192000F0B9FE0F4B36
:10079C001B68032B02DD0D4B00221A600B4B1B68F0
:1007AC005A1C0A490A60184600F0D0FC00BF80BDF4
:1007BC0098000020C8000020340000204C000020CD
:1007CC00CC00002040000020AC0000209C00002049
:1007DC0080B483B000AF78607B68002B10D11F4BC6
:1007EC001B6801331D4A13601C4B5B6801331B4AA9
:1007FC0053601A4B1B68622B02DD184B00221A60E7
:10080C007B68012B10D1154B5B680133134A536085
:10081C00124B1B680133114A1360104B5B68622B3F
:10082C0002DD0E4B00225A607B68022B10D10B4B61
:10083C009B680133094A9360084B1B680133074AD4
:10084C001360064B9B68622B02DD044B00229A60FE
:10085C0000BF0C37BD4680BC704700BF3400002081
:10086C0080B500AF654B1B680E2B00F081800E2B02
:10087C0000F3BA800C2B02D00D2B3DD0B4E0604BB2
:10088C001B68012B0AD100F0C7F85E4B03221A60DB
:10089C005D4B14221A60642000F00AFE0220FFF760
:1008AC004FFC0346012B02D10020FFF791FF0320E0
:1008BC00FFF746FC0346012B10D1544B1B68544ADE
:1008CC001360524B5B68534A13604E4B00221A6004
:1008DC004D4B01221A60494B01221A600120FFF78F
:1008EC002FFC0346012B40F08180444B0D221A60F3
:1008FC00642000F0DDFD79E0414B1B68012B0AD12F
:10090C0000F0B2F83F4B04221A603F4B15221A60DC
:10091C00642000F0CDFD0220FFF712FC0346012BF2
:10092C0002D10120FFF754FF0320FFF709FC034617
:10093C00012B10D1354B1B68354A1360334B5B6868
:10094C00344A13602F4B00221A602F4B01221A607D
:10095C002A4B01221A600120FFF7F2FB0346012B00
:10096C0046D1264B0E221A60642000F0A1FD3FE018
:10097C00234B1B68012B0AD100F09EF8214B05225A
:10098C001A60214B16221A60642000F091FD02209F
:10099C00FFF7D6FB0346012B02D10220FFF718FF0D
:1009AC000320FFF7CDFB0346012B10D1174B1B681F
:1009BC00174A1360154B5B68164A1360114B0022E3
:1009CC001A60114B01221A600C4B01221A60012093
:1009DC00FFF7B6FB0346012B0CD1084B0C221A6017
:1009EC00642000F065FD05E000BF04E000BF02E0FC
:1009FC0000BF00E000BF00BF80BD00BF940000201E
:100A0C00A0000020980000204C00002034000020A2
:100A1C00C8000020CC00002080B500AF4FF48071DE
:100A2C00104801F0CCF94FF400610E4801F0C7F901
:100A3C0001224FF400710B4801F0A9F901224FF487
:100A4C008061084801F0A3F901224FF48051054858
:100A5C0001F09DF901224FF40051024801F097F981
:100A6C0000BF80BD000C014080B500AF4FF4806129
:100A7C00104801F0A4F94FF400510E4801F09FF911
:100A8C0001224FF480710B4801F081F901224FF4DF
:100A9C000061084801F07BF901224FF40071054810
:100AAC0001F075F901224FF48051024801F06FF901
:100ABC0000BF80BD000C014080B500AF4FF4007149
:100ACC00104801F07CF94FF480510E4801F077F991
:100ADC0001224FF480710B4801F059F901224FF4B7
:100AEC000061084801F053F901224FF48061054878
:100AFC0001F04DF901224FF40051024801F047F981
:100B0C0000BF80BD000C014080B582B000AF7860A2
:100B1C007B68092B00F2808101A252F823F000BF00
:100B2C00550B00089D0B0008E50B00082D0C000868
:100B3C00750C0008BD0C0008050D00084D0D0008D3
:100B4C00950D0008DD0D000800220121C64801F0BA
:100B5C001EF900220221C44801F019F900220421D7
:100B6C00C14801F014F900220821BF4801F00FF927
:100B7C0000221021BC4801F00AF900222021BA48B9
:100B8C0001F005F901224021B74801F000F967E1B5
:100B9C0001220121B44801F0FAF800220221B248E6
:100BAC0001F0F5F800220421AF4801F0F0F8012221
:100BBC000821AD4801F0EBF801221021AA4801F000
:100BCC00E6F801222021A84801F0E1F80122402199
:100BDC00A54801F0DCF843E100220121A24801F014
:100BEC00D6F800220221A04801F0D1F801220421FC
:100BFC009D4801F0CCF8002208219B4801F0C7F871
:100C0C0000221021984801F0C2F8012220219648B8
:100C1C0001F0BDF800224021934801F0B8F81FE123
:100C2C0000220121904801F0B2F8002202218E48E6
:100C3C0001F0ADF8002204218B4801F0A8F8002245
:100C4C000821894801F0A3F801221021864801F0FF
:100C5C009EF801222021844801F099F800224021BD
:100C6C00814801F094F8FBE0012201217E4801F05B
:100C7C008EF8002202217C4801F089F80022042120
:100C8C00794801F084F801220821774801F07FF8B7
:100C9C0001221021744801F07AF8002220217248B8
:100CAC0001F075F8002240216F4801F070F8D7E090
:100CBC00002201216C4801F06AF8012202216A48E5
:100CCC0001F065F800220421674801F060F8002269
:100CDC000821654801F05BF801221021624801F0FF
:100CEC0056F800222021604801F051F800224021E2
:100CFC005D4801F04CF8B3E0002201215A4801F0A4
:100D0C0046F801220221584801F041F80022042142
:100D1C00554801F03CF800220821534801F037F8FF
:100D2C0000221021504801F032F8002220214E48B8
:100D3C0001F02DF8002240214B4801F028F88FE0FB
:100D4C0000220121484801F022F8002202214648E5
:100D5C0001F01DF800220421434801F018F801228B
:100D6C000821414801F013F8012210213E4801F0FE
:100D7C000EF8012220213C4801F009F80122402103
:100D8C00394801F004F86BE000220121364800F0EC
:100D9C00FEFF00220221344800F0F9FF002204215A
:100DAC00314800F0F4FF002208212F4800F0EFFF3B
:100DBC00002210212C4800F0EAFF002220212A48B2
:100DCC0000F0E5FF00224021274800F0E0FF47E05B
:100DDC0000220121244800F0DAFF002202212248DF
:100DEC0000F0D5FF002204211F4800F0D0FF0022A4
:100DFC0008211D4800F0CBFF012210211A4800F0F9
:100E0C00C6FF00222021184800F0C1FF002240211B
:100E1C00154800F0BCFF23E001220121124800F02C
:100E2C00B6FF01220221104800F0B1FF012204217B
:100E3C000D4800F0ACFF012208210B4800F0A7FF81
:100E4C0001221021084800F0A2FF012220210648AF
:100E5C0000F09DFF01224021034800F098FF00BFE5
:100E6C0000BF0837BD4680BD000C014080B400AF08
:100E7C00AE4B1B68002B18D1AD4B1B68AD4A82FBE7
:100E8C0003129210DB17D31AAB4A1360A84B1968E4
:100E9C00A84B83FB01239A10CB17D21A13469B0045
:100EAC0013445B00CA1AA44B5A60A04B1B68012B5D
:100EBC0018D19F4B1B689F4A82FB03129210DB17C1
:100ECC00D31A9D4A13609A4B19689A4B83FB0123E2
:100EDC009A10CB17D21A13469B0013445B00CA1A04
:100EEC00954B5A60914B1B68022B18D1904B1B6889
:100EFC00904A82FB03129210DB17D31A8E4A1360AE
:100F0C008B4B19688B4B83FB01239A10CB17D21A8E
:100F1C0013469B0013445B00CA1A874B5A60874BDD
:100F2C001B68012B18D1864B1B68824A82FB03126B
:100F3C009210DB17D31A804A9360814B19687D4B52
:100F4C0083FB01239A10CB17D21A13469B00134430
:100F5C005B00CA1A784BDA60784B1B68022B18D1ED
:100F6C00774B1B68734A82FB03129210DB17D31A60
:100F7C00714A9360724B19686E4B83FB01239A1074
:100F8C00CB17D21A13469B0013445B00CA1A6A4B48
:100F9C00DA606A4B1B68002B18D1694B1B68654AD9
:100FAC0082FB03129210DB17D31A634A9360644BD3
:100FBC001968604B83FB01239A10CB17D21A134686
:100FCC009B0013445B00CA1A5B4BDA60574B1B68DF
:100FDC00032B35D1594B1B68142B31D1544B1B6847
:100FEC00544A82FB03129210DB17D31A524A136035
:100FFC004F4B19684F4B83FB01239A10CB17D21A16
:10100C0013469B0013445B00CA1A4B4B5A604C4B63
:10101C001B68484A82FB03129210DB17D31A464A0C
:10102C009360474B1968434B83FB01239A10CB17F2
:10103C00D21A13469B0013445B00CA1A3E4BDA606B
:10104C003A4B1B68042B35D13C4B1B68152B31D10B
:10105C00374B1B68374A82FB03129210DB17D31AEB
:10106C00354A1360324B1968324B83FB01239A10BB
:10107C00CB17D21A13469B0013445B00CA1A2E4B93
:10108C005A602F4B1B682B4A82FB03129210DB1702
:10109C00D31A294A93602A4B1968264B83FB0123E8
:1010AC009A10CB17D21A13469B0013445B00CA1A32
:1010BC00214BDA601D4B1B68052B43D11F4B1B6862
:1010CC00162B3FD11A4B1B681A4A82FB0312921043
:1010DC00DB17D31A184A1360154B1968154B83FB91
:1010EC0001239A10CB17D21A13469B0013445B00B2
:1010FC00CA1A114B5A60124B1B680E4A82FB031220
:10110C009210DB17D31A0C4A93600D4B1968094BDC
:10111C0083FB01239A10CB17D21A13469B0013445E
:10112C005B00CA1A044BDA600CE000BF9800002088
:10113C00C800002067666666500000204C00002046
:10114C00CC00002000BFBD4680BC704780B582B08B
:10115C0000AF7860FFF78AFE7B68032B72D801A280
:10116C0052F823F081110008B5110008E9110008AC
:10117C001D12000800221021354800F008FE012243
:10118C002021334800F003FE01224021304800F0BA
:10119C00FEFD012280212E4800F0F9FD2D4B1B682D
:1011AC001846FFF7B1FC4EE001221021284800F050
:1011BC00EEFD00222021264800F0E9FD012240210D
:1011CC00234800F0E4FD01228021214800F0DFFDDE
:1011DC00204B5B681846FFF797FC34E00122102186
:1011EC001B4800F0D4FD01222021194800F0CFFD4E
:1011FC0000224021164800F0CAFD0122802114482B
:10120C0000F0C5FD134B9B681846FFF77DFC1AE0F8
:10121C00012210210E4800F0BAFD012220210C48B9
:10122C0000F0B5FD01224021094800F0B0FD00227C
:10123C008021074800F0ABFD064BDB681846FFF732
:10124C0063FC00E000BF00BF0837BD4680BD00BF97
:10125C00000801405000002080B500AF00F096FA65
:10126C0000F02AF800F0B0F800F062F80D4801F038
:10127C00EBF9642000F030F9192000F041F90A4B29
:10128C0001221A60642000F04FF9084B1B68084AD1
:10129C001360064B5B68074A1360FFF781F8FFF792
:1012AC00DFFAFAE7D0000020940000203400002080
:1012BC00C8000020CC00002080B590B000AF07F132
:1012CC00180328220021184601F07AFD3B1D00224C
:1012DC001A605A609A60DA601A610223BB610123BA
:1012EC00BB621023FB6200237B6307F118031846D3
:1012FC0000F07EFD0346002B01D000F0D3F80F2345
:10130C007B600023BB600023FB6000233B61002358
:10131C007B613B1D0021184600F0EAFF0346002BC1
:10132C0001D000F0BFF800BF4037BD4680BD0000C3
:10133C0080B586B000AF07F1080300221A605A602E
:10134C009A60DA603B4600221A605A601D4B4FF0DF
:10135C0080421A601B4B41F63F725A60194B0022B7
:10136C009A60184B0922DA60164B00221A61154B51
:10137C0000229A61134801F017F90346002B01D0A3
:10138C0000F090F84FF48053BB6007F10803194646
:10139C000C4801F0ADFA0346002B01D000F082F8A6
:1013AC0000233B6000237B603B461946054801F057
:1013BC0079FC0346002B01D000F074F800BF1837FD
:1013CC00BD4680BDD000002080B586B000AF07F1CF
:1013DC00080300221A605A609A60DA60284B9B69F5
:1013EC00274A43F004039361254B9B6903F00403E4
:1013FC007B607B68224B9B69214A43F00803936115
:10140C001F4B9B6903F008033B603B680022F021F3
:10141C001C4800F0BCFC002243F67F711A4800F017
:10142C00B6FCF023BB600123FB6000233B6102236D
:10143C007B6107F108031946124800F017FB43F6CD
:10144C007F73BB600123FB6000233B6102237B6144
:10145C0007F1080319460C4800F008FB4FF46043F1
:10146C00BB600023FB6001233B6107F108031946B5
:10147C00044800F0FBFA00BF1837BD4680BD00BF22
:10148C000010024000080140000C014080B582B001
:10149C0000AF786000F05CF8FEF7AAFE00BF0837DA
:1014AC00BD4680BD80B400AF72B600BFFEE7000041
:1014BC0080B483B000AF7860054A7B681360054B3D
:1014CC0000221A6000BF0C37BD4680BC704700BFBD
:1014DC00B4000020A000002080B483B000AF78607E
:1014EC00054A7B681360054B00221A6000BF0C375D
:1014FC00BD4680BC704700BFBC000020A800002087
:10150C0080B483B000AF7860054A7B681360054BEC
:10151C0000221A6000BF0C37BD4680BC704700BF6C
:10152C00C0000020AC00002080B483B000AF786015
:10153C00054A7B681360054B00221A6000BF0C370C
:10154C00BD4680BC704700BFC4000020B000002026
:10155C0080B400AF294B1B68002B0BDD274B1B689D
:10156C00013B264A1360254B1B68002B02DC244BE5
:10157C0001221A60234B1B68002B0BDD214B1B68CF
:10158C00013B204A13601F4B1B68002B02DC1E4BD7
:10159C0001221A601D4B1B68002B0BDD1B4B1B68BB
:1015AC00013B1A4A1360194B1B68002B02DC184BC9
:1015BC0001221A60174B1B68002B0BDD154B1B68A7
:1015CC00013B144A1360134B1B68002B02DC124BBB
:1015DC0001221A60114B1B68002B0BDD0F4B1B6893
:1015EC00013B0E4A13600D4B1B68002B02DC0C4BAD
:1015FC0001221A6000BFBD4680BC7047B4000020B9
:10160C00A0000020B8000020A4000020BC00002096
:10161C00A8000020C0000020AC000020C400002066
:10162C00B000002080B485B000AF154B9B69144A04
:10163C0043F001039361124B9B6903F00103BB6000
:10164C00BB680F4BDB690E4A43F08053D3610C4BE4
:10165C00DB6903F080537B607B680A4B5B68FB6043
:10166C00FB6823F0E063FB60FB6843F08063FB6086
:10167C00044AFB68536000BF1437BD4680BC7047FA
:10168C00001002400000014080B584B000AF7860CB
:10169C007B681B68B3F1804F13D10C4BDB690B4A91
:1016AC0043F00103D361094BDB6903F00103FB60D9
:1016BC00FB68002200211C2000F0A1F91C2000F086
:1016CC00BAF900BF1037BD4680BD00BF0010024004
:1016DC0080B400AFFEE780B400AFFEE780B400AF8B
:1016EC00FEE780B400AFFEE780B400AFFEE780B445
:1016FC0000AF00BFBD4680BC704780B400AF00BFD8
:10170C00BD4680BC704780B400AF00BFBD4680BCF6
:10171C00704780B500AF00F07FF800BF80BD0000BF
:10172C0080B500AF024800F0DBFF00BF80BD00BFFA
:10173C00D000002080B400AF00BFBD4680BC704715
:10174C00FFF7F8FF0B480C490C4A002302E0D45871
:10175C00C4500433C4188C42F9D3094A094C0023F1
:10176C0001E013600432A242FBD301F005FBFFF74A
:10177C0073FD7047000000206C000020202E000834
:10178C006C0000201C010020FEE7000080B500AFBB
:10179C00084B1B68074A43F010031360032000F04A
:1017AC0023F90F2000F008F8FFF73CFF0023184640
:1017BC0080BD00BF0020024080B582B000AF7860D1
:1017CC00124B1A68124B1B7819464FF47A73B3FB01
:1017DC00F1F3B2FBF3F3184600F03BF90346002B90
:1017EC0001D001230EE07B680F2B0AD80022796808
:1017FC004FF0FF3000F003F9064A7B6813600023BA
:10180C0000E0012318460837BD4680BD600000206B
:10181C00680000206400002080B400AF054B1B78EA
:10182C001A46054B1B681344034A136000BFBD46A0
:10183C0080BC7047680000201801002080B400AF05
:10184C00024B1B681846BD4680BC7047180100202F
:10185C0080B485B000AF78607B6803F00703FB6051
:10186C000C4BDB68BB60BA684FF6FF031340BB60E0
:10187C00FB681A02BB68134343F0BF6343F40033A5
:10188C00BB60044ABB68D36000BF1437BD4680BC44
:10189C00704700BF00ED00E080B400AF044BDB6884
:1018AC001B0A03F007031846BD4680BC704700BFF7
:1018BC0000ED00E080B483B000AF0346FB7197F9F4
:1018CC000730002B0BDBFB7903F01F02064997F95D
:1018DC0007305B09012000FA02F241F8232000BF17
:1018EC000C37BD4680BC704700E100E080B483B08B
:1018FC0000AF03463960FB7197F90730002B0ADB08
:10190C003B68DAB20C4997F907301201D2B20B449A
:10191C0083F800230AE03B68DAB20849FB7903F04C
:10192C000F03043B1201D2B20B441A7600BF0C37E2
:10193C00BD4680BC704700BF00E100E000ED00E058
:10194C0080B489B000AFF860B9607A60FB6803F0CE
:10195C000703FB61FB69C3F10703042B28BF0423B6
:10196C00BB61FB690433062B02D9FB69033B00E026
:10197C0000237B614FF0FF32BB6902FA03F3DA43B9
:10198C00BB681A407B699A404FF0FF317B6901FAC2
:10199C0003F3D9437B680B40134318462437BD46E9
:1019AC0080BC704780B582B000AF78607B68013B2B
:1019BC00B3F1807F01D301230FE00A4A7B68013B1E
:1019CC0053600F214FF0FF30FFF790FF054B0022C3
:1019DC009A60044B07221A60002318460837BD464C
:1019EC0080BD00BF10E000E080B582B000AF786031
:1019FC007868FFF72DFF00BF0837BD4680BD80B566
:101A0C0086B000AF0346B9607A60FB7300237B613C
:101A1C00FFF742FF78617A68B9687869FFF790FF41
:101A2C00024697F90F3011461846FFF75FFF00BFCB
:101A3C001837BD4680BD80B582B000AF0346FB7140
:101A4C0097F907301846FFF735FF00BF0837BD463A
:101A5C0080BD80B582B000AF78607868FFF7A2FFD8
:101A6C00034618460837BD4680BD000080B48BB0D5
:101A7C0000AF7860396000237B6200233B6248E151
:101A8C0001227B6A02FA03F3FB613B681B68FA696B
:101A9C001340BB61BA69FB699A4240F037813B68DD
:101AAC005B68A34A93425ED0A14A934275D8A14A7F
:101ABC00934258D09F4A93426FD89F4A934252D038
:101ACC009D4A934269D89D4A93424CD09B4A93427B
:101ADC0063D89B4A934246D0994A93425DD8122BC5
:101AEC002AD8122B59D801A252F823F0731B0008E4
:101AFC004D1B00085F1B0008A11B0008A71B00085A
:101B0C00A71B0008A71B0008A71B0008A71B0008A1
:101B1C00A71B0008A71B0008A71B0008A71B000891
:101B2C00A71B0008A71B0008A71B0008A71B000881
:101B3C00551B0008691B0008824A934213D02CE005
:101B4C003B68DB683B6229E03B68DB6804333B6243
:101B5C0024E03B68DB6808333B621FE03B68DB68D2
:101B6C000C333B621AE03B689B68002B02D10423C8
:101B7C003B6213E03B689B68012B05D108233B6259
:101B8C007B68FA691A6109E008233B627B68FA6991
:101B9C005A6103E000233B6200E000BFBB69FF2BEE
:101BAC0001D87B6801E07B6804337B61BB69FF2B48
:101BBC0002D87B6A9B0002E07B6A083B9B003B617E
:101BCC007B691A680F213B6901FA03F3DB431A4066
:101BDC00396A3B6901FA03F31A437B691A603B6863
:101BEC005B6803F08053002B00F09080564B9B6990
:101BFC00554A43F001039361534B9B6903F0010376
:101C0C00BB60BB68514A7B6A9B08023352F8233095
:101C1C00FB607B6A03F003039B000F2202FA03F3C1
:101C2C00DB43FA681340FB607B68494A93420DD052
:101C3C007B68484A934207D07B68474A934201D15C
:101C4C00022304E0032302E0012300E000237A6A6C
:101C5C0002F0030292009340FA681343FB603B4985
:101C6C007B6A9B080233FA6841F823203B685B6867
:101C7C0003F48013002B06D0384B9A683749BB69A4
:101C8C0013438B6006E0354B9A68BB69DB433349E1
:101C9C0013408B603B685B6803F40013002B06D089
:101CAC002E4BDA682D49BB691343CB6006E02B4BF6
:101CBC00DA68BB69DB4329491340CB603B685B683E
:101CCC0003F40033002B06D0244B5A682349BB691C
:101CDC0013434B6006E0214B5A68BB69DB431F4939
:101CEC0013404B603B685B6803F48033002B06D0D9
:101CFC001A4B1A681949BB6913430B6006E0174B62
:101D0C001A68BB69DB43154913400B607B6A0133CE
:101D1C007B623B681A687B6A22FA03F3002B7FF420
:101D2C00AFAE00BF00BF2C37BD4680BC704700BFB4
:101D3C0000003210000031100000221000002110B1
:101D4C0000001210000011100010024000000140B1
:101D5C0000080140000C014000100140000401404B
:101D6C0080B485B000AF78600B467B807B689A6846
:101D7C007B881340002B02D00123FB7301E000236E
:101D8C00FB73FB7B18461437BD4680BC704780B490
:101D9C0083B000AF78600B467B8013467B707B78FA
:101DAC00002B03D07A887B681A6103E07B881A04C5
:101DBC007B681A6100BF0C37BD4680BC704780B48D
:101DCC0085B000AF78600B467B807B68DB68FB607E
:101DDC007A88FB6813401A04FB68D9437B880B4054
:101DEC001A437B681A6100BF1437BD4680BC70472C
:101DFC0080B586B000AF78607B68002B01D10123E1
:101E0C006CE27B681B6803F00103002B00F08780F9
:101E1C00924B5B6803F00C03042B0CD08F4B5B686C
:101E2C0003F00C03082B12D18C4B5B6803F480334A
:101E3C00B3F5803F0BD1894B1B6803F40033002BA7
:101E4C006CD07B685B68002B68D1012346E27B6811
:101E5C005B68B3F5803F06D1804B1B687F4A43F427
:101E6C00803313602EE07B685B68002B0CD17B4BBE
:101E7C001B687A4A23F480331360784B1B68774ACB
:101E8C0023F4802313601DE07B685B68B3F5A02FFF
:101E9C000CD1724B1B68714A43F4802313606F4B57
:101EAC001B686E4A43F4803313600BE06B4B1B686A
:101EBC006A4A23F480331360684B1B68674A23F427
:101ECC00802313607B685B68002B13D0FFF7B6FC94
:101EDC00386108E0FFF7B2FC02463B69D31A642B69
:101EEC0001D90323FAE15D4B1B6803F40033002B8B
:101EFC00F0D014E0FFF7A2FC386108E0FFF79EFC7D
:101F0C0002463B69D31A642B01D90323E6E1534BF8
:101F1C001B6803F40033002BF0D100E000BF7B689A
:101F2C001B6803F00203002B63D04C4B5B6803F07F
:101F3C000C03002B0BD0494B5B6803F00C03082BF4
:101F4C001CD1464B5B6803F48033002B16D1434BFA
:101F5C001B6803F00203002B05D07B681B69012B67
:101F6C0001D00123BAE13D4B1B6823F0F8027B68DA
:101F7C005B69DB00394913430B603AE07B681B69F2
:101F8C00002B20D0364B01221A60FFF757FC38612A
:101F9C0008E0FFF753FC02463B69D31A022B01D928
:101FAC0003239BE12D4B1B6803F00203002BF0D0A5
:101FBC002A4B1B6823F0F8027B685B69DB0027491E
:101FCC0013430B6015E0264B00221A60FFF736FC1A
:101FDC00386108E0FFF732FC02463B69D31A022B4A
:101FEC0001D903237AE11D4B1B6803F00203002B7C
:101FFC00F0D17B681B6803F00803002B3AD07B6898
:10200C009B69002B19D0174B01221A60FFF716FCA5
:10201C00386108E0FFF712FC02463B69D31A022B29
:10202C0001D903235AE10D4B5B6A03F00203002B29
:10203C00F0D0012000F09AFA1CE00A4B00221A6042
:10204C00FFF7FCFB38610FE0FFF7F8FB02463B693A
:10205C00D31A022B08D9032340E100BF0010024021
:10206C0000004242800442429E4B5B6A03F0020332
:10207C00002BE9D17B681B6803F00403002B00F0F4
:10208C00A6800023FB75974BDB6903F08053002B74
:10209C000DD1944BDB69934A43F08053D361914B40
:1020AC00DB6903F08053BB60BB680123FB758E4B6F
:1020BC001B6803F48073002B18D18B4B1B688A4A66
:1020CC0043F480731360FFF7B9FB386108E0FFF746
:1020DC00B5FB02463B69D31A642B01D90323FDE0FF
:1020EC00814B1B6803F48073002BF0D07B68DB689A
:1020FC00012B06D17B4B1B6A7A4A43F00103136216
:10210C002DE07B68DB68002B0CD1764B1B6A754A83
:10211C0023F001031362734B1B6A724A23F004030E
:10212C0013621CE07B68DB68052B0CD16D4B1B6AC2
:10213C006C4A43F0040313626A4B1B6A694A43F00E
:10214C00010313620BE0674B1B6A664A23F0010321
:10215C001362644B1B6A634A23F0040313627B68AB
:10216C00DB68002B15D0FFF769FB38610AE0FFF73D
:10217C0065FB02463B69D31A41F28832934201D97E
:10218C000323ABE0574B1B6A03F00203002BEED08A
:10219C0014E0FFF753FB38610AE0FFF74FFB0246F0
:1021AC003B69D31A41F28832934201D9032395E05B
:1021BC004C4B1B6A03F00203002BEED1FB7D012B71
:1021CC0005D1484BDB69474A23F08053D3617B68C8
:1021DC00DB69002B00F08180424B5B6803F00C0341
:1021EC00082B61D07B68DB69022B46D13F4B002268
:1021FC001A60FFF723FB386108E0FFF71FFB02466C
:10220C003B69D31A022B01D9032367E0354B1B68BA
:10221C0003F00073002BF0D17B681B6AB3F5803F91
:10222C0008D1304B5B6823F400327B689B682D49E6
:10223C0013434B602B4B5B6823F474127B68196A55
:10224C007B685B6A0B43274913434B60274B012286
:10225C001A60FFF7F3FA386108E0FFF7EFFA02466D
:10226C003B69D31A022B01D9032337E01D4B1B68A2
:10227C0003F00073002BF0D02FE01C4B00221A60EF
:10228C00FFF7DCFA386108E0FFF7D8FA02463B6941
:10229C00D31A022B01D9032320E0124B1B6803F045
:1022AC000073002BF0D118E07B68DB69012B01D1A6
:1022BC00012313E00B4B5B68FB60FB6803F480327B
:1022CC007B681B6A9A4206D1FB6803F470127B6828
:1022DC005B6A9A4201D0012300E0002318461837AC
:1022EC00BD4680BD001002400070004060004242BC
:1022FC0080B584B000AF786039607B68002B01D169
:10230C000123D0E06A4B1B6803F007033A689A423A
:10231C0010D9674B1B6823F0070265493B681343D0
:10232C000B60634B1B6803F007033A689A4201D0B9
:10233C000123B8E07B681B6803F00203002B20D05C
:10234C007B681B6803F00403002B05D0594B5B68BA
:10235C00584A43F4E06353607B681B6803F008033E
:10236C00002B05D0534B5B68524A43F460535360C7
:10237C00504B5B6823F0F0027B689B684D4913431C
:10238C004B607B681B6803F00103002B40D07B681B
:10239C005B68012B07D1474B1B6803F40033002B00
:1023AC0015D101237FE07B685B68022B07D1414B81
:1023BC001B6803F00073002B09D1012373E03D4B24
:1023CC001B6803F00203002B01D101236BE0394B96
:1023DC005B6823F003027B685B68364913434B60F0
:1023EC00FFF72CFAF8600AE0FFF728FA0246FB68C0
:1023FC00D31A41F28832934201D9032353E02D4B77
:10240C005B6803F00C027B685B689B009A42EBD123
:10241C00274B1B6803F007033A689A4210D2244BEF
:10242C001B6823F0070222493B6813430B60204BC7
:10243C001B6803F007033A689A4201D0012332E08B
:10244C007B681B6803F00403002B08D0194B5B68F6
:10245C0023F4E0627B68DB68164913434B607B68AE
:10246C001B6803F00803002B09D0124B5B6823F4A4
:10247C0060527B681B69DB000E4913434B6000F014
:10248C0021F802460B4B5B681B0903F00F030A494A
:10249C00CB5C22FA03F3094A1360094B1B681846FC
:1024AC00FFF78AF9002318461037BD4680BD00BFE0
:1024BC000020024000100240F42D000860000020B3
:1024CC006400002080B487B000AF0023FB600023C1
:1024DC00BB6000237B6100237B6000233B611E4BB0
:1024EC005B68FB60FB6803F00C03042B02D0082B29
:1024FC0003D027E0194B3B6127E0FB689B0C03F0F2
:10250C000F03174AD35C7B60FB6803F48033002B0A
:10251C0010D0114B5B685B0C03F00103114AD35CC8
:10252C00BB607B680D4A02FB03F2BB68B2FBF3F3A2
:10253C007B6104E07B680C4A02FB03F37B617B69E3
:10254C003B6102E0054B3B6100BF3B6918461C3701
:10255C00BD4680BC704700BF0010024000127A00DC
:10256C00042E0008142E000800093D0080B485B02C
:10257C0000AF78600A4B1B680A4AA2FB03235B0A74
:10258C007A6802FB03F3FB6000BFFB685A1EFA601B
:10259C00002BF9D100BF00BF1437BD4680BC70477B
:1025AC0060000020D34D621080B582B000AF78601F
:1025BC007B68002B01D1012341E07B6893F83D300F
:1025CC00DBB2002B06D17B68002283F83C207868B4
:1025DC00FFF75AF87B68022283F83D207B681A6863
:1025EC007B6804331946104600F06EFA7B680122B2
:1025FC0083F846207B68012283F83E207B68012209
:10260C0083F83F207B68012283F840207B680122FD
:10261C0083F841207B68012283F842207B680122E9
:10262C0083F843207B68012283F844207B680122D5
:10263C0083F845207B68012283F83D20002318464F
:10264C000837BD4680BD000080B485B000AF78600F
:10265C007B6893F83D30DBB2012B01D0012335E0D0
:10266C007B68022283F83D207B681B68DA687B68F4
:10267C001B6842F00102DA607B681B68164A9342C1
:10268C0009D07B681B68B3F1804F04D07B681B6852
:10269C00124A934211D17B681B689B6803F00703B5
:1026AC00FB60FB68062B10D07B681B681A687B6884
:1026BC001B6842F001021A6007E07B681B681A680D
:1026CC007B681B6842F001021A600023184614371D
:1026DC00BD4680BC704700BF002C01400004004088
:1026EC0080B582B000AF78607B681B681B6903F013
:1026FC000203022B22D17B681B68DB6803F0020308
:10270C00022B1BD17B681B686FF002021A617B687D
:10271C0001221A777B681B689B6903F00303002B6B
:10272C0003D0786800F0B4F905E0786800F0A7F9F8
:10273C00786800F0B6F97B6800221A777B681B6812
:10274C001B6903F00403042B22D17B681B68DB6834
:10275C0003F00403042B1BD17B681B686FF004028D
:10276C001A617B6802221A777B681B689B6903F4E9
:10277C004073002B03D0786800F08AF905E0786884
:10278C0000F07DF9786800F08CF97B6800221A77EC
:10279C007B681B681B6903F00803082B22D17B683C
:1027AC001B68DB6803F00803082B1BD17B681B68D4
:1027BC006FF008021A617B6804221A777B681B6829
:1027CC00DB6903F00303002B03D0786800F060F999
:1027DC0005E0786800F053F9786800F062F97B68DE
:1027EC0000221A777B681B681B6903F01003102BFF
:1027FC0022D17B681B68DB6803F01003102B1BD104
:10280C007B681B686FF010021A617B6808221A77CC
:10281C007B681B68DB6903F44073002B03D078687A
:10282C0000F036F905E0786800F029F9786800F0D6
:10283C0038F97B6800221A777B681B681B6903F0E8
:10284C000103012B0ED17B681B68DB6803F00103CD
:10285C00012B07D17B681B686FF001021A61786845
:10286C00FEF714FE7B681B681B6903F08003802B4A
:10287C000ED17B681B68DB6803F08003802B07D1CB
:10288C007B681B686FF080021A61786800F06BFA45
:10289C007B681B681B6903F04003402B0ED17B68DF
:1028AC001B68DB6803F04003402B07D17B681B6877
:1028BC006FF040021A61786800F0FCF87B681B68C6
:1028CC001B6903F02003202B0ED17B681B68DB688F
:1028DC0003F02003202B07D17B681B686FF02002CC
:1028EC001A61786800F036FA00BF0837BD4680BD23
:1028FC0080B584B000AF786039600023FB737B68CF
:10290C0093F83C30012B01D10223B4E07B68012207
:10291C0083F83C207B68022283F83D207B681B688F
:10292C009B68BB60BB6823F07703BB60BB6823F478
:10293C007F43BB607B681B68BA689A603B681B6806
:10294C00B3F5005F3ED0B3F5005F00F28780B3F5BE
:10295C00805F00F08680B3F5805F7FD8702B1AD033
:10296C00702B7BD8602B50D0602B77D8502B3CD061
:10297C00502B73D8402B58D0402B6FD8302B64D0B1
:10298C00302B6BD8202B60D0202B67D8002B5CD041
:10299C00102B5AD062E07B6818683B6899683B68DA
:1029AC005A683B68DB6800F05EF97B681B689B68C3
:1029BC00BB60BB6843F07703BB607B681B68BA687D
:1029CC009A604FE07B6818683B6899683B685A6866
:1029DC003B68DB6800F047F97B681B689A687B688A
:1029EC001B6842F480429A603CE07B6818683B6844
:1029FC0059683B68DB681A4600F0BEF87B681B68B8
:102A0C005021184600F015F92CE07B6818683B68DB
:102A1C0059683B68DB681A4600F0DCF87B681B6879
:102A2C006021184600F005F91CE07B6818683B68CB
:102A3C0059683B68DB681A4600F09EF87B681B6897
:102A4C004021184600F0F5F80CE07B681A683B68EA
:102A5C001B681946104600F0ECF803E00123FB73E9
:102A6C0000E000BF7B68012283F83D207B680022D8
:102A7C0083F83C20FB7B18461037BD4680BD80B4E4
:102A8C0083B000AF786000BF0C37BD4680BC704788
:102A9C0080B483B000AF786000BF0C37BD4680BCFB
:102AAC00704780B483B000AF786000BF0C37BD4670
:102ABC0080BC704780B483B000AF786000BF0C3727
:102ACC00BD4680BC7047000080B485B000AF786014
:102ADC0039607B681B68FB607B68254A934207D092
:102AEC007B68B3F1804F03D07B68224A934208D1B4
:102AFC00FB6823F07003FB603B685B68FA68134368
:102B0C00FB607B681A4A934207D07B68B3F1804F15
:102B1C0003D07B68174A934208D1FB6823F44073B7
:102B2C00FB603B68DB68FA681343FB60FB6823F0CF
:102B3C0080023B685B691343FB607B68FA681A6030
:102B4C003B689A687B68DA623B681A687B689A62B1
:102B5C007B68074A934203D13B681A697B681A6306
:102B6C007B6801225A6100BF1437BD4680BC704798
:102B7C00002C01400004004080B487B000AFF86026
:102B8C00B9607A60FB681B6A7B61FB681B6A23F087
:102B9C000102FB681A62FB689B693B613B6923F08D
:102BAC00F0033B617B681B013A6913433B617B6912
:102BBC0023F00A037B617A69BB6813437B61FB6872
:102BCC003A699A61FB687A691A6200BF1C37BD4684
:102BDC0080BC704780B487B000AFF860B9607A6091
:102BEC00FB681B6A7B61FB681B6A23F01002FB68A5
:102BFC001A62FB689B693B613B6923F470433B6140
:102C0C007B681B033A6913433B617B6923F0A00388
:102C1C007B61BB681B017A6913437B61FB683A6972
:102C2C009A61FB687A691A6200BF1C37BD4680BC8A
:102C3C00704780B485B000AF786039607B689B6862
:102C4C00FB60FB6823F07003FB603A68FB6813437E
:102C5C0043F00703FB607B68FA689A6000BF143787
:102C6C00BD4680BC704780B487B000AFF860B960D7
:102C7C007A603B60FB689B687B617B6923F47F43D4
:102C8C007B613B681A027B681A43BB6813437A6901
:102C9C0013437B61FB687A699A6000BF1C37BD46A1
:102CAC0080BC704780B485B000AF786039607B68B9
:102CBC0093F83C30012B01D1022341E07B680122C7
:102CCC0083F83C207B68022283F83D207B681B68DC
:102CDC005B68FB607B681B689B68BB60FB6823F0D0
:102CEC007003FB603B681B68FA681343FB607B68EE
:102CFC001B68FA685A607B681B68144A934209D0B7
:102D0C007B681B68B3F1804F04D07B681B68104A4A
:102D1C0093420CD1BB6823F08003BB603B685B68BB
:102D2C00BA681343BB607B681B68BA689A607B689F
:102D3C00012283F83D207B68002283F83C2000238D
:102D4C0018461437BD4680BC704700BF002C0140AC
:102D5C000004004080B483B000AF786000BF0C3733
:102D6C00BD4680BC704780B483B000AF786000BFB4
:102D7C000C37BD4680BC704770B500260C4D0D4C11
:102D8C00641BA410A64209D100F022F800260A4DBB
:102D9C000A4C641BA410A64205D170BD55F8043B27
:102DAC0098470136EEE755F8043B98470136F2E7B1
:102DBC00182E0008182E0008182E00081C2E0008CB
:102DCC0003460244934200D1704703F8011BF9E714
:102DDC00F8B500BFF8BC08BC9E467047F8B500BFFC
:082DEC00F8BC08BC9E467047CC
:102DF40000000000000000000102030406070809A7
:102E040002030405060708090A0B0C0D0E0F101027
:042E140001020000B7
:042E1800310100087C
:042E1C000D0100089C
:102E2000010000000100000001000000010000009E
:102E3000010000000100000001000000010000008E
:102E4000010000000100000001000000010000007E
:102E5000C8000000050000000300000002000000A0
:102E60000200000003000000040000000100000058
:102E7000000000000100000002000000030000004C
:0C2E80000024F40010000000010000001D
:040000050800174D8B
:00000001FF
